{
  "_format": "hh-sol-artifact-1",
  "contractName": "Raffle",
  "sourceName": "contracts/Raffle.sol",
  "abi": [
    {
      "inputs": [
        {
          "internalType": "address",
          "name": "vrfCoordinatorV2",
          "type": "address"
        },
        {
          "internalType": "uint256",
          "name": "entranceFee",
          "type": "uint256"
        },
        {
          "internalType": "bytes32",
          "name": "gasLane",
          "type": "bytes32"
        },
        {
          "internalType": "uint64",
          "name": "suscripcionId",
          "type": "uint64"
        },
        {
          "internalType": "uint16",
          "name": "callbackGasLimit",
          "type": "uint16"
        },
        {
          "internalType": "uint256",
          "name": "interval",
          "type": "uint256"
        }
      ],
      "stateMutability": "nonpayable",
      "type": "constructor"
    },
    {
      "inputs": [
        {
          "internalType": "address",
          "name": "have",
          "type": "address"
        },
        {
          "internalType": "address",
          "name": "want",
          "type": "address"
        }
      ],
      "name": "OnlyCoordinatorCanFulfill",
      "type": "error"
    },
    {
      "inputs": [],
      "name": "Raffle__NotEnoughETHEntered",
      "type": "error"
    },
    {
      "inputs": [],
      "name": "Raffle__NotOpen",
      "type": "error"
    },
    {
      "inputs": [],
      "name": "Raffle__TransferFailed",
      "type": "error"
    },
    {
      "inputs": [
        {
          "internalType": "uint256",
          "name": "currentBalance",
          "type": "uint256"
        },
        {
          "internalType": "uint256",
          "name": "numPlayers",
          "type": "uint256"
        },
        {
          "internalType": "uint256",
          "name": "raffeState",
          "type": "uint256"
        }
      ],
      "name": "Raffle__UpkeepNotNeeded",
      "type": "error"
    },
    {
      "anonymous": false,
      "inputs": [
        {
          "indexed": true,
          "internalType": "address",
          "name": "player",
          "type": "address"
        }
      ],
      "name": "RaffleEnter",
      "type": "event"
    },
    {
      "anonymous": false,
      "inputs": [
        {
          "indexed": true,
          "internalType": "uint256",
          "name": "requestId",
          "type": "uint256"
        }
      ],
      "name": "RequestedRaffleWinner",
      "type": "event"
    },
    {
      "anonymous": false,
      "inputs": [
        {
          "indexed": true,
          "internalType": "address",
          "name": "winner",
          "type": "address"
        }
      ],
      "name": "WinnerPicked",
      "type": "event"
    },
    {
      "inputs": [
        {
          "internalType": "bytes",
          "name": "",
          "type": "bytes"
        }
      ],
      "name": "checkUpkeep",
      "outputs": [
        {
          "internalType": "bool",
          "name": "upkeepNeeded",
          "type": "bool"
        },
        {
          "internalType": "bytes",
          "name": "",
          "type": "bytes"
        }
      ],
      "stateMutability": "nonpayable",
      "type": "function"
    },
    {
      "inputs": [],
      "name": "enterRaffle",
      "outputs": [],
      "stateMutability": "payable",
      "type": "function"
    },
    {
      "inputs": [],
      "name": "getEntranceFee",
      "outputs": [
        {
          "internalType": "uint256",
          "name": "",
          "type": "uint256"
        }
      ],
      "stateMutability": "view",
      "type": "function"
    },
    {
      "inputs": [],
      "name": "getLastestTimeStamp",
      "outputs": [
        {
          "internalType": "uint256",
          "name": "",
          "type": "uint256"
        }
      ],
      "stateMutability": "view",
      "type": "function"
    },
    {
      "inputs": [],
      "name": "getNumWords",
      "outputs": [
        {
          "internalType": "uint256",
          "name": "",
          "type": "uint256"
        }
      ],
      "stateMutability": "pure",
      "type": "function"
    },
    {
      "inputs": [],
      "name": "getNumberOfPlayers",
      "outputs": [
        {
          "internalType": "uint256",
          "name": "",
          "type": "uint256"
        }
      ],
      "stateMutability": "view",
      "type": "function"
    },
    {
      "inputs": [
        {
          "internalType": "uint256",
          "name": "index",
          "type": "uint256"
        }
      ],
      "name": "getPlayer",
      "outputs": [
        {
          "internalType": "address",
          "name": "",
          "type": "address"
        }
      ],
      "stateMutability": "view",
      "type": "function"
    },
    {
      "inputs": [],
      "name": "getRaffleState",
      "outputs": [
        {
          "internalType": "enum Raffle.RaffleState",
          "name": "",
          "type": "uint8"
        }
      ],
      "stateMutability": "view",
      "type": "function"
    },
    {
      "inputs": [],
      "name": "getRecentWinner",
      "outputs": [
        {
          "internalType": "address",
          "name": "",
          "type": "address"
        }
      ],
      "stateMutability": "view",
      "type": "function"
    },
    {
      "inputs": [],
      "name": "getRequestConfirmation",
      "outputs": [
        {
          "internalType": "uint256",
          "name": "",
          "type": "uint256"
        }
      ],
      "stateMutability": "pure",
      "type": "function"
    },
    {
      "inputs": [
        {
          "internalType": "bytes",
          "name": "",
          "type": "bytes"
        }
      ],
      "name": "performUpkeep",
      "outputs": [],
      "stateMutability": "nonpayable",
      "type": "function"
    },
    {
      "inputs": [
        {
          "internalType": "uint256",
          "name": "requestId",
          "type": "uint256"
        },
        {
          "internalType": "uint256[]",
          "name": "randomWords",
          "type": "uint256[]"
        }
      ],
      "name": "rawFulfillRandomWords",
      "outputs": [],
      "stateMutability": "nonpayable",
      "type": "function"
    }
  ],
  "bytecode": "0x6101606040523480156200001257600080fd5b50604051620017c2380380620017c283398181016040528101906200003891906200028e565b858073ffffffffffffffffffffffffffffffffffffffff1660808173ffffffffffffffffffffffffffffffffffffffff1681525050508460a081815250508573ffffffffffffffffffffffffffffffffffffffff1660c08173ffffffffffffffffffffffffffffffffffffffff16815250508360e081815250508267ffffffffffffffff166101008167ffffffffffffffff16815250508161ffff166101208161ffff16815250506000600160146101000a81548160ff021916908360018111156200010957620001086200032a565b5b02179055504260028190555080610140818152505050505050505062000359565b600080fd5b600073ffffffffffffffffffffffffffffffffffffffff82169050919050565b60006200015c826200012f565b9050919050565b6200016e816200014f565b81146200017a57600080fd5b50565b6000815190506200018e8162000163565b92915050565b6000819050919050565b620001a98162000194565b8114620001b557600080fd5b50565b600081519050620001c9816200019e565b92915050565b6000819050919050565b620001e481620001cf565b8114620001f057600080fd5b50565b6000815190506200020481620001d9565b92915050565b600067ffffffffffffffff82169050919050565b62000229816200020a565b81146200023557600080fd5b50565b60008151905062000249816200021e565b92915050565b600061ffff82169050919050565b62000268816200024f565b81146200027457600080fd5b50565b60008151905062000288816200025d565b92915050565b60008060008060008060c08789031215620002ae57620002ad6200012a565b5b6000620002be89828a016200017d565b9650506020620002d189828a01620001b8565b9550506040620002e489828a01620001f3565b9450506060620002f789828a0162000238565b93505060806200030a89828a0162000277565b92505060a06200031d89828a01620001b8565b9150509295509295509295565b7f4e487b7100000000000000000000000000000000000000000000000000000000600052602160045260246000fd5b60805160a05160c05160e051610100516101205161014051611400620003c2600039600061078a015260006106550152600061063201526000610611015260006105d50152600081816102b401526103b10152600081816102f1015261034501526114006000f3fe6080604052600436106100a75760003560e01c806353a2c19a1161006457806353a2c19a146101895780636e04ff0d146101b45780638ba05b0e146101f2578063ca6a9ef81461021d578063e55ae4e814610248578063fd6673f514610285576100a7565b806309bc33a7146100ac578063115cbaf5146100d75780631fe543e3146101025780632cfcc5391461012b5780634585e33b14610135578063473f1ddc1461015e575b600080fd5b3480156100b857600080fd5b506100c16102b0565b6040516100ce9190610b4f565b60405180910390f35b3480156100e357600080fd5b506100ec6102d8565b6040516100f99190610be1565b60405180910390f35b34801561010e57600080fd5b5061012960048036038101906101249190610d95565b6102ef565b005b6101336103af565b005b34801561014157600080fd5b5061015c60048036038101906101579190610e4c565b61051e565b005b34801561016a57600080fd5b5061017361070e565b6040516101809190610eda565b60405180910390f35b34801561019557600080fd5b5061019e610738565b6040516101ab9190610b4f565b60405180910390f35b3480156101c057600080fd5b506101db60048036038101906101d69190610faa565b610747565b6040516101e992919061108d565b60405180910390f35b3480156101fe57600080fd5b506102076107f4565b6040516102149190610b4f565b60405180910390f35b34801561022957600080fd5b506102326107fe565b60405161023f9190610b4f565b60405180910390f35b34801561025457600080fd5b5061026f600480360381019061026a91906110bd565b61080b565b60405161027c9190610eda565b60405180910390f35b34801561029157600080fd5b5061029a610852565b6040516102a79190610b4f565b60405180910390f35b60007f0000000000000000000000000000000000000000000000000000000000000000905090565b6000600160149054906101000a900460ff16905090565b7f000000000000000000000000000000000000000000000000000000000000000073ffffffffffffffffffffffffffffffffffffffff163373ffffffffffffffffffffffffffffffffffffffff16146103a157337f00000000000000000000000000000000000000000000000000000000000000006040517f1cf993f40000000000000000000000000000000000000000000000000000000081526004016103989291906110ea565b60405180910390fd5b6103ab828261085e565b5050565b7f0000000000000000000000000000000000000000000000000000000000000000341015610409576040517fbd4e069500000000000000000000000000000000000000000000000000000000815260040160405180910390fd5b6000600181111561041d5761041c610b6a565b5b600160149054906101000a900460ff16600181111561043f5761043e610b6a565b5b14610476576040517f1425571c00000000000000000000000000000000000000000000000000000000815260040160405180910390fd5b6000339080600181540180825580915050600190039060005260206000200160009091909190916101000a81548173ffffffffffffffffffffffffffffffffffffffff021916908373ffffffffffffffffffffffffffffffffffffffff1602179055503373ffffffffffffffffffffffffffffffffffffffff167f0805e1d667bddb8a95f0f09880cf94f403fb596ce79928d9f29b74203ba284d460405160405180910390a2565b600061053860405180602001604052806000815250610747565b509050806105a75747600080549050600160149054906101000a900460ff16600181111561056957610568610b6a565b5b6040517f584327aa00000000000000000000000000000000000000000000000000000000815260040161059e93929190611113565b60405180910390fd5b60018060146101000a81548160ff021916908360018111156105cc576105cb610b6a565b5b021790555060007f000000000000000000000000000000000000000000000000000000000000000073ffffffffffffffffffffffffffffffffffffffff16635d3b1d307f00000000000000000000000000000000000000000000000000000000000000007f000000000000000000000000000000000000000000000000000000000000000060037f000000000000000000000000000000000000000000000000000000000000000060026040518663ffffffff1660e01b81526004016106969594939291906111fd565b6020604051808303816000875af11580156106b5573d6000803e3d6000fd5b505050506040513d601f19601f820116820180604052508101906106d99190611265565b9050807fcd6e45c8998311cab7e9d4385596cac867e20a0587194b954fa3a731c93ce78b60405160405180910390a250505050565b6000600160009054906101000a900473ffffffffffffffffffffffffffffffffffffffff16905090565b6000600263ffffffff16905090565b600060606000600160149054906101000a900460ff16600181111561076f5761076e610b6a565b5b6000600181111561078357610782610b6a565b5b14905060007f0000000000000000000000000000000000000000000000000000000000000000600254426107b791906112c1565b119050600080600080549050119050600080471190508380156107d75750825b80156107e05750815b80156107e95750805b955050505050915091565b6000600254905090565b6000600361ffff16905090565b60008082815481106108205761081f6112f5565b5b9060005260206000200160009054906101000a900473ffffffffffffffffffffffffffffffffffffffff169050919050565b60008080549050905090565b6000808054905082600081518110610879576108786112f5565b5b602002602001015161088b9190611353565b905060008082815481106108a2576108a16112f5565b5b9060005260206000200160009054906101000a900473ffffffffffffffffffffffffffffffffffffffff16905080600160006101000a81548173ffffffffffffffffffffffffffffffffffffffff021916908373ffffffffffffffffffffffffffffffffffffffff1602179055506000600160146101000a81548160ff0219169083600181111561093657610935610b6a565b5b0217905550600067ffffffffffffffff81111561095657610955610c52565b5b6040519080825280602002602001820160405280156109845781602001602082028036833780820191505090505b506000908051906020019061099a929190610a8f565b504260028190555060008173ffffffffffffffffffffffffffffffffffffffff16476040516109c8906113b5565b60006040518083038185875af1925050503d8060008114610a05576040519150601f19603f3d011682016040523d82523d6000602084013e610a0a565b606091505b5050905080610a45576040517fa1d04b3900000000000000000000000000000000000000000000000000000000815260040160405180910390fd5b8173ffffffffffffffffffffffffffffffffffffffff167f5b690ec4a06fe979403046eaeea5b3ce38524683c3001f662c8b5a829632f7df60405160405180910390a25050505050565b828054828255906000526020600020908101928215610b08579160200282015b82811115610b075782518260006101000a81548173ffffffffffffffffffffffffffffffffffffffff021916908373ffffffffffffffffffffffffffffffffffffffff16021790555091602001919060010190610aaf565b5b509050610b159190610b19565b5090565b5b80821115610b32576000816000905550600101610b1a565b5090565b6000819050919050565b610b4981610b36565b82525050565b6000602082019050610b646000830184610b40565b92915050565b7f4e487b7100000000000000000000000000000000000000000000000000000000600052602160045260246000fd5b60028110610baa57610ba9610b6a565b5b50565b6000819050610bbb82610b99565b919050565b6000610bcb82610bad565b9050919050565b610bdb81610bc0565b82525050565b6000602082019050610bf66000830184610bd2565b92915050565b6000604051905090565b600080fd5b600080fd5b610c1981610b36565b8114610c2457600080fd5b50565b600081359050610c3681610c10565b92915050565b600080fd5b6000601f19601f8301169050919050565b7f4e487b7100000000000000000000000000000000000000000000000000000000600052604160045260246000fd5b610c8a82610c41565b810181811067ffffffffffffffff82111715610ca957610ca8610c52565b5b80604052505050565b6000610cbc610bfc565b9050610cc88282610c81565b919050565b600067ffffffffffffffff821115610ce857610ce7610c52565b5b602082029050602081019050919050565b600080fd5b6000610d11610d0c84610ccd565b610cb2565b90508083825260208201905060208402830185811115610d3457610d33610cf9565b5b835b81811015610d5d5780610d498882610c27565b845260208401935050602081019050610d36565b5050509392505050565b600082601f830112610d7c57610d7b610c3c565b5b8135610d8c848260208601610cfe565b91505092915050565b60008060408385031215610dac57610dab610c06565b5b6000610dba85828601610c27565b925050602083013567ffffffffffffffff811115610ddb57610dda610c0b565b5b610de785828601610d67565b9150509250929050565b600080fd5b60008083601f840112610e0c57610e0b610c3c565b5b8235905067ffffffffffffffff811115610e2957610e28610df1565b5b602083019150836001820283011115610e4557610e44610cf9565b5b9250929050565b60008060208385031215610e6357610e62610c06565b5b600083013567ffffffffffffffff811115610e8157610e80610c0b565b5b610e8d85828601610df6565b92509250509250929050565b600073ffffffffffffffffffffffffffffffffffffffff82169050919050565b6000610ec482610e99565b9050919050565b610ed481610eb9565b82525050565b6000602082019050610eef6000830184610ecb565b92915050565b600080fd5b600067ffffffffffffffff821115610f1557610f14610c52565b5b610f1e82610c41565b9050602081019050919050565b82818337600083830152505050565b6000610f4d610f4884610efa565b610cb2565b905082815260208101848484011115610f6957610f68610ef5565b5b610f74848285610f2b565b509392505050565b600082601f830112610f9157610f90610c3c565b5b8135610fa1848260208601610f3a565b91505092915050565b600060208284031215610fc057610fbf610c06565b5b600082013567ffffffffffffffff811115610fde57610fdd610c0b565b5b610fea84828501610f7c565b91505092915050565b60008115159050919050565b61100881610ff3565b82525050565b600081519050919050565b600082825260208201905092915050565b60005b8381101561104857808201518184015260208101905061102d565b60008484015250505050565b600061105f8261100e565b6110698185611019565b935061107981856020860161102a565b61108281610c41565b840191505092915050565b60006040820190506110a26000830185610fff565b81810360208301526110b48184611054565b90509392505050565b6000602082840312156110d3576110d2610c06565b5b60006110e184828501610c27565b91505092915050565b60006040820190506110ff6000830185610ecb565b61110c6020830184610ecb565b9392505050565b60006060820190506111286000830186610b40565b6111356020830185610b40565b6111426040830184610b40565b949350505050565b6000819050919050565b61115d8161114a565b82525050565b600067ffffffffffffffff82169050919050565b61118081611163565b82525050565b600061ffff82169050919050565b61119d81611186565b82525050565b600063ffffffff82169050919050565b6000819050919050565b60006111d86111d36111ce84611186565b6111b3565b6111a3565b9050919050565b6111e8816111bd565b82525050565b6111f7816111a3565b82525050565b600060a0820190506112126000830188611154565b61121f6020830187611177565b61122c6040830186611194565b61123960608301856111df565b61124660808301846111ee565b9695505050505050565b60008151905061125f81610c10565b92915050565b60006020828403121561127b5761127a610c06565b5b600061128984828501611250565b91505092915050565b7f4e487b7100000000000000000000000000000000000000000000000000000000600052601160045260246000fd5b60006112cc82610b36565b91506112d783610b36565b92508282039050818111156112ef576112ee611292565b5b92915050565b7f4e487b7100000000000000000000000000000000000000000000000000000000600052603260045260246000fd5b7f4e487b7100000000000000000000000000000000000000000000000000000000600052601260045260246000fd5b600061135e82610b36565b915061136983610b36565b92508261137957611378611324565b5b828206905092915050565b600081905092915050565b50565b600061139f600083611384565b91506113aa8261138f565b600082019050919050565b60006113c082611392565b915081905091905056fea2646970667358221220dfbe6ee33ac4aa0562583e613b2f7dbbb8061a5901395f6b7184ad620dd6d54564736f6c63430008110033",
  "linkReferences": {},
  "deployedLinkReferences": {}
}