{
  "_format": "hh-sol-artifact-1",
  "contractName": "Raffle",
  "sourceName": "contracts/Raffle.sol",
  "abi": [
    {
      "inputs": [
        {
          "internalType": "address",
          "name": "vrfCoordinatorV2",
          "type": "address"
        },
        {
          "internalType": "uint256",
          "name": "entranceFee",
          "type": "uint256"
        },
        {
          "internalType": "bytes32",
          "name": "gasLane",
          "type": "bytes32"
        },
        {
          "internalType": "uint64",
          "name": "suscripcionId",
          "type": "uint64"
        },
        {
          "internalType": "uint16",
          "name": "callbackGasLimit",
          "type": "uint16"
        }
      ],
      "stateMutability": "nonpayable",
      "type": "constructor"
    },
    {
      "inputs": [
        {
          "internalType": "address",
          "name": "have",
          "type": "address"
        },
        {
          "internalType": "address",
          "name": "want",
          "type": "address"
        }
      ],
      "name": "OnlyCoordinatorCanFulfill",
      "type": "error"
    },
    {
      "inputs": [],
      "name": "Raffle__NotEnoughETHEntered",
      "type": "error"
    },
    {
      "anonymous": false,
      "inputs": [
        {
          "indexed": true,
          "internalType": "address",
          "name": "player",
          "type": "address"
        }
      ],
      "name": "RaffleEnter",
      "type": "event"
    },
    {
      "anonymous": false,
      "inputs": [
        {
          "indexed": true,
          "internalType": "uint256",
          "name": "requestId",
          "type": "uint256"
        }
      ],
      "name": "RequestedRaffleWinner",
      "type": "event"
    },
    {
      "inputs": [],
      "name": "enterRaffle",
      "outputs": [],
      "stateMutability": "payable",
      "type": "function"
    },
    {
      "inputs": [],
      "name": "getEntranceFee",
      "outputs": [
        {
          "internalType": "uint256",
          "name": "",
          "type": "uint256"
        }
      ],
      "stateMutability": "view",
      "type": "function"
    },
    {
      "inputs": [
        {
          "internalType": "uint256",
          "name": "index",
          "type": "uint256"
        }
      ],
      "name": "getPlayer",
      "outputs": [
        {
          "internalType": "address",
          "name": "",
          "type": "address"
        }
      ],
      "stateMutability": "view",
      "type": "function"
    },
    {
      "inputs": [
        {
          "internalType": "uint256",
          "name": "requestId",
          "type": "uint256"
        },
        {
          "internalType": "uint256[]",
          "name": "randomWords",
          "type": "uint256[]"
        }
      ],
      "name": "rawFulfillRandomWords",
      "outputs": [],
      "stateMutability": "nonpayable",
      "type": "function"
    },
    {
      "inputs": [],
      "name": "requestRandomWinner",
      "outputs": [],
      "stateMutability": "nonpayable",
      "type": "function"
    }
  ],
  "bytecode": "0x6101406040523480156200001257600080fd5b5060405162000c2d38038062000c2d83398181016040528101906200003891906200024f565b848073ffffffffffffffffffffffffffffffffffffffff1660808173ffffffffffffffffffffffffffffffffffffffff1681525050508360a081815250508473ffffffffffffffffffffffffffffffffffffffff1660c08173ffffffffffffffffffffffffffffffffffffffff16815250508260e081815250508167ffffffffffffffff166101008167ffffffffffffffff16815250508061ffff166101208161ffff16815250505050505050620002d7565b600080fd5b600073ffffffffffffffffffffffffffffffffffffffff82169050919050565b60006200011d82620000f0565b9050919050565b6200012f8162000110565b81146200013b57600080fd5b50565b6000815190506200014f8162000124565b92915050565b6000819050919050565b6200016a8162000155565b81146200017657600080fd5b50565b6000815190506200018a816200015f565b92915050565b6000819050919050565b620001a58162000190565b8114620001b157600080fd5b50565b600081519050620001c5816200019a565b92915050565b600067ffffffffffffffff82169050919050565b620001ea81620001cb565b8114620001f657600080fd5b50565b6000815190506200020a81620001df565b92915050565b600061ffff82169050919050565b620002298162000210565b81146200023557600080fd5b50565b60008151905062000249816200021e565b92915050565b600080600080600060a086880312156200026e576200026d620000eb565b5b60006200027e888289016200013e565b9550506020620002918882890162000179565b9450506040620002a488828901620001b4565b9350506060620002b788828901620001f9565b9250506080620002ca8882890162000238565b9150509295509295909350565b60805160a05160c05160e05161010051610120516108f862000335600039600061036f0152600061034c0152600061032b015260006102ef01526000818161010501526101eb01526000818161012b015261017f01526108f86000f3fe60806040526004361061004a5760003560e01c806309bc33a71461004f5780631fe543e31461007a5780632cfcc539146100a3578063522a1f0b146100ad578063e55ae4e8146100c4575b600080fd5b34801561005b57600080fd5b50610064610101565b6040516100719190610489565b60405180910390f35b34801561008657600080fd5b506100a1600480360381019061009c919061063d565b610129565b005b6100ab6101e9565b005b3480156100b957600080fd5b506100c26102eb565b005b3480156100d057600080fd5b506100eb60048036038101906100e69190610699565b610425565b6040516100f89190610707565b60405180910390f35b60007f0000000000000000000000000000000000000000000000000000000000000000905090565b7f000000000000000000000000000000000000000000000000000000000000000073ffffffffffffffffffffffffffffffffffffffff163373ffffffffffffffffffffffffffffffffffffffff16146101db57337f00000000000000000000000000000000000000000000000000000000000000006040517f1cf993f40000000000000000000000000000000000000000000000000000000081526004016101d2929190610722565b60405180910390fd5b6101e5828261046c565b5050565b7f0000000000000000000000000000000000000000000000000000000000000000341015610243576040517fbd4e069500000000000000000000000000000000000000000000000000000000815260040160405180910390fd5b6000339080600181540180825580915050600190039060005260206000200160009091909190916101000a81548173ffffffffffffffffffffffffffffffffffffffff021916908373ffffffffffffffffffffffffffffffffffffffff1602179055503373ffffffffffffffffffffffffffffffffffffffff167f0805e1d667bddb8a95f0f09880cf94f403fb596ce79928d9f29b74203ba284d460405160405180910390a2565b60007f000000000000000000000000000000000000000000000000000000000000000073ffffffffffffffffffffffffffffffffffffffff16635d3b1d307f00000000000000000000000000000000000000000000000000000000000000007f000000000000000000000000000000000000000000000000000000000000000060037f000000000000000000000000000000000000000000000000000000000000000060026040518663ffffffff1660e01b81526004016103b09594939291906107fe565b6020604051808303816000875af11580156103cf573d6000803e3d6000fd5b505050506040513d601f19601f820116820180604052508101906103f39190610866565b9050807fcd6e45c8998311cab7e9d4385596cac867e20a0587194b954fa3a731c93ce78b60405160405180910390a250565b600080828154811061043a57610439610893565b5b9060005260206000200160009054906101000a900473ffffffffffffffffffffffffffffffffffffffff169050919050565b5050565b6000819050919050565b61048381610470565b82525050565b600060208201905061049e600083018461047a565b92915050565b6000604051905090565b600080fd5b600080fd5b6104c181610470565b81146104cc57600080fd5b50565b6000813590506104de816104b8565b92915050565b600080fd5b6000601f19601f8301169050919050565b7f4e487b7100000000000000000000000000000000000000000000000000000000600052604160045260246000fd5b610532826104e9565b810181811067ffffffffffffffff82111715610551576105506104fa565b5b80604052505050565b60006105646104a4565b90506105708282610529565b919050565b600067ffffffffffffffff8211156105905761058f6104fa565b5b602082029050602081019050919050565b600080fd5b60006105b96105b484610575565b61055a565b905080838252602082019050602084028301858111156105dc576105db6105a1565b5b835b8181101561060557806105f188826104cf565b8452602084019350506020810190506105de565b5050509392505050565b600082601f830112610624576106236104e4565b5b81356106348482602086016105a6565b91505092915050565b60008060408385031215610654576106536104ae565b5b6000610662858286016104cf565b925050602083013567ffffffffffffffff811115610683576106826104b3565b5b61068f8582860161060f565b9150509250929050565b6000602082840312156106af576106ae6104ae565b5b60006106bd848285016104cf565b91505092915050565b600073ffffffffffffffffffffffffffffffffffffffff82169050919050565b60006106f1826106c6565b9050919050565b610701816106e6565b82525050565b600060208201905061071c60008301846106f8565b92915050565b600060408201905061073760008301856106f8565b61074460208301846106f8565b9392505050565b6000819050919050565b61075e8161074b565b82525050565b600067ffffffffffffffff82169050919050565b61078181610764565b82525050565b600061ffff82169050919050565b61079e81610787565b82525050565b600063ffffffff82169050919050565b6000819050919050565b60006107d96107d46107cf84610787565b6107b4565b6107a4565b9050919050565b6107e9816107be565b82525050565b6107f8816107a4565b82525050565b600060a0820190506108136000830188610755565b6108206020830187610778565b61082d6040830186610795565b61083a60608301856107e0565b61084760808301846107ef565b9695505050505050565b600081519050610860816104b8565b92915050565b60006020828403121561087c5761087b6104ae565b5b600061088a84828501610851565b91505092915050565b7f4e487b7100000000000000000000000000000000000000000000000000000000600052603260045260246000fdfea2646970667358221220444cf1bed3ce7b9300103e31b191aaeee634773869b5b4c5b57db4c4cd8d0f1a64736f6c63430008110033",
  "linkReferences": {},
  "deployedLinkReferences": {}
}