{
  "_format": "hh-sol-artifact-1",
  "contractName": "Raffle",
  "sourceName": "contracts/Raffle.sol",
  "abi": [
    {
      "inputs": [
        {
          "internalType": "address",
          "name": "vrfCoordinatorV2",
          "type": "address"
        },
        {
          "internalType": "uint256",
          "name": "entranceFee",
          "type": "uint256"
        },
        {
          "internalType": "bytes32",
          "name": "gasLane",
          "type": "bytes32"
        },
        {
          "internalType": "uint64",
          "name": "suscripcionId",
          "type": "uint64"
        },
        {
          "internalType": "uint16",
          "name": "callbackGasLimit",
          "type": "uint16"
        },
        {
          "internalType": "uint256",
          "name": "interval",
          "type": "uint256"
        }
      ],
      "stateMutability": "nonpayable",
      "type": "constructor"
    },
    {
      "inputs": [
        {
          "internalType": "address",
          "name": "have",
          "type": "address"
        },
        {
          "internalType": "address",
          "name": "want",
          "type": "address"
        }
      ],
      "name": "OnlyCoordinatorCanFulfill",
      "type": "error"
    },
    {
      "inputs": [],
      "name": "Raffle__NotEnoughETHEntered",
      "type": "error"
    },
    {
      "inputs": [],
      "name": "Raffle__RaffleNotOpen",
      "type": "error"
    },
    {
      "inputs": [],
      "name": "Raffle__TransferFailed",
      "type": "error"
    },
    {
      "inputs": [
        {
          "internalType": "uint256",
          "name": "currentBalance",
          "type": "uint256"
        },
        {
          "internalType": "uint256",
          "name": "numPlayers",
          "type": "uint256"
        },
        {
          "internalType": "uint256",
          "name": "raffeState",
          "type": "uint256"
        }
      ],
      "name": "Raffle__UpkeepNotNeeded",
      "type": "error"
    },
    {
      "anonymous": false,
      "inputs": [
        {
          "indexed": true,
          "internalType": "address",
          "name": "player",
          "type": "address"
        }
      ],
      "name": "RaffleEnter",
      "type": "event"
    },
    {
      "anonymous": false,
      "inputs": [
        {
          "indexed": true,
          "internalType": "uint256",
          "name": "requestId",
          "type": "uint256"
        }
      ],
      "name": "RequestedRaffleWinner",
      "type": "event"
    },
    {
      "anonymous": false,
      "inputs": [
        {
          "indexed": true,
          "internalType": "address",
          "name": "winner",
          "type": "address"
        }
      ],
      "name": "WinnerPicked",
      "type": "event"
    },
    {
      "stateMutability": "payable",
      "type": "fallback"
    },
    {
      "inputs": [
        {
          "internalType": "bytes",
          "name": "",
          "type": "bytes"
        }
      ],
      "name": "checkUpkeep",
      "outputs": [
        {
          "internalType": "bool",
          "name": "upkeepNeeded",
          "type": "bool"
        },
        {
          "internalType": "bytes",
          "name": "",
          "type": "bytes"
        }
      ],
      "stateMutability": "nonpayable",
      "type": "function"
    },
    {
      "inputs": [],
      "name": "enterRaffle",
      "outputs": [],
      "stateMutability": "payable",
      "type": "function"
    },
    {
      "inputs": [],
      "name": "getEntranceFee",
      "outputs": [
        {
          "internalType": "uint256",
          "name": "",
          "type": "uint256"
        }
      ],
      "stateMutability": "view",
      "type": "function"
    },
    {
      "inputs": [],
      "name": "getInterval",
      "outputs": [
        {
          "internalType": "uint256",
          "name": "",
          "type": "uint256"
        }
      ],
      "stateMutability": "view",
      "type": "function"
    },
    {
      "inputs": [],
      "name": "getLastTimeStamp",
      "outputs": [
        {
          "internalType": "uint256",
          "name": "",
          "type": "uint256"
        }
      ],
      "stateMutability": "view",
      "type": "function"
    },
    {
      "inputs": [],
      "name": "getNumWords",
      "outputs": [
        {
          "internalType": "uint256",
          "name": "",
          "type": "uint256"
        }
      ],
      "stateMutability": "pure",
      "type": "function"
    },
    {
      "inputs": [],
      "name": "getNumberOfPlayers",
      "outputs": [
        {
          "internalType": "uint256",
          "name": "",
          "type": "uint256"
        }
      ],
      "stateMutability": "view",
      "type": "function"
    },
    {
      "inputs": [
        {
          "internalType": "uint256",
          "name": "index",
          "type": "uint256"
        }
      ],
      "name": "getPlayer",
      "outputs": [
        {
          "internalType": "address",
          "name": "",
          "type": "address"
        }
      ],
      "stateMutability": "view",
      "type": "function"
    },
    {
      "inputs": [],
      "name": "getRaffleState",
      "outputs": [
        {
          "internalType": "enum Raffle.RaffleState",
          "name": "",
          "type": "uint8"
        }
      ],
      "stateMutability": "view",
      "type": "function"
    },
    {
      "inputs": [],
      "name": "getRecentWinner",
      "outputs": [
        {
          "internalType": "address",
          "name": "",
          "type": "address"
        }
      ],
      "stateMutability": "view",
      "type": "function"
    },
    {
      "inputs": [],
      "name": "getRequestConfirmation",
      "outputs": [
        {
          "internalType": "uint256",
          "name": "",
          "type": "uint256"
        }
      ],
      "stateMutability": "pure",
      "type": "function"
    },
    {
      "inputs": [
        {
          "internalType": "bytes",
          "name": "",
          "type": "bytes"
        }
      ],
      "name": "performUpkeep",
      "outputs": [],
      "stateMutability": "nonpayable",
      "type": "function"
    },
    {
      "inputs": [
        {
          "internalType": "uint256",
          "name": "requestId",
          "type": "uint256"
        },
        {
          "internalType": "uint256[]",
          "name": "randomWords",
          "type": "uint256[]"
        }
      ],
      "name": "rawFulfillRandomWords",
      "outputs": [],
      "stateMutability": "nonpayable",
      "type": "function"
    },
    {
      "stateMutability": "payable",
      "type": "receive"
    }
  ],
  "bytecode": "0x6101606040523480156200001257600080fd5b506040516200187a3803806200187a83398181016040528101906200003891906200028e565b858073ffffffffffffffffffffffffffffffffffffffff1660808173ffffffffffffffffffffffffffffffffffffffff1681525050508460a081815250508573ffffffffffffffffffffffffffffffffffffffff1660c08173ffffffffffffffffffffffffffffffffffffffff16815250508360e081815250508267ffffffffffffffff166101008167ffffffffffffffff16815250508161ffff166101208161ffff16815250506000600160146101000a81548160ff021916908360018111156200010957620001086200032a565b5b02179055504260028190555080610140818152505050505050505062000359565b600080fd5b600073ffffffffffffffffffffffffffffffffffffffff82169050919050565b60006200015c826200012f565b9050919050565b6200016e816200014f565b81146200017a57600080fd5b50565b6000815190506200018e8162000163565b92915050565b6000819050919050565b620001a98162000194565b8114620001b557600080fd5b50565b600081519050620001c9816200019e565b92915050565b6000819050919050565b620001e481620001cf565b8114620001f057600080fd5b50565b6000815190506200020481620001d9565b92915050565b600067ffffffffffffffff82169050919050565b62000229816200020a565b81146200023557600080fd5b50565b60008151905062000249816200021e565b92915050565b600061ffff82169050919050565b62000268816200024f565b81146200027457600080fd5b50565b60008151905062000288816200025d565b92915050565b60008060008060008060c08789031215620002ae57620002ad6200012a565b5b6000620002be89828a016200017d565b9650506020620002d189828a01620001b8565b9550506040620002e489828a01620001f3565b9450506060620002f789828a0162000238565b93505060806200030a89828a0162000277565b92505060a06200031d89828a01620001b8565b9150509295509295509295565b7f4e487b7100000000000000000000000000000000000000000000000000000000600052602160045260246000fd5b60805160a05160c05160e0516101005161012051610140516114b1620003c9600039600081816107d80152610881015260006106a3015260006106800152600061065f0152600061062301526000818161030201526103ff01526000818161033f015261039301526114b16000f3fe6080604052600436106100c65760003560e01c806353a2c19a1161007f578063c1c244e811610059578063c1c244e814610240578063ca6a9ef81461026b578063e55ae4e814610296578063fd6673f5146102d3576100cd565b806353a2c19a146101ac5780636e04ff0d146101d757806391ad27b414610215576100cd565b806309bc33a7146100cf578063115cbaf5146100fa5780631fe543e3146101255780632cfcc5391461014e5780634585e33b14610158578063473f1ddc14610181576100cd565b366100cd57005b005b3480156100db57600080fd5b506100e46102fe565b6040516100f19190610c00565b60405180910390f35b34801561010657600080fd5b5061010f610326565b60405161011c9190610c92565b60405180910390f35b34801561013157600080fd5b5061014c60048036038101906101479190610e46565b61033d565b005b6101566103fd565b005b34801561016457600080fd5b5061017f600480360381019061017a9190610efd565b61056c565b005b34801561018d57600080fd5b5061019661075c565b6040516101a39190610f8b565b60405180910390f35b3480156101b857600080fd5b506101c1610786565b6040516101ce9190610c00565b60405180910390f35b3480156101e357600080fd5b506101fe60048036038101906101f9919061105b565b610795565b60405161020c92919061113e565b60405180910390f35b34801561022157600080fd5b5061022a61087d565b6040516102379190610c00565b60405180910390f35b34801561024c57600080fd5b506102556108a5565b6040516102629190610c00565b60405180910390f35b34801561027757600080fd5b506102806108af565b60405161028d9190610c00565b60405180910390f35b3480156102a257600080fd5b506102bd60048036038101906102b8919061116e565b6108bc565b6040516102ca9190610f8b565b60405180910390f35b3480156102df57600080fd5b506102e8610903565b6040516102f59190610c00565b60405180910390f35b60007f0000000000000000000000000000000000000000000000000000000000000000905090565b6000600160149054906101000a900460ff16905090565b7f000000000000000000000000000000000000000000000000000000000000000073ffffffffffffffffffffffffffffffffffffffff163373ffffffffffffffffffffffffffffffffffffffff16146103ef57337f00000000000000000000000000000000000000000000000000000000000000006040517f1cf993f40000000000000000000000000000000000000000000000000000000081526004016103e692919061119b565b60405180910390fd5b6103f9828261090f565b5050565b7f0000000000000000000000000000000000000000000000000000000000000000341015610457576040517fbd4e069500000000000000000000000000000000000000000000000000000000815260040160405180910390fd5b6000600181111561046b5761046a610c1b565b5b600160149054906101000a900460ff16600181111561048d5761048c610c1b565b5b146104c4576040517fd24a271400000000000000000000000000000000000000000000000000000000815260040160405180910390fd5b6000339080600181540180825580915050600190039060005260206000200160009091909190916101000a81548173ffffffffffffffffffffffffffffffffffffffff021916908373ffffffffffffffffffffffffffffffffffffffff1602179055503373ffffffffffffffffffffffffffffffffffffffff167f0805e1d667bddb8a95f0f09880cf94f403fb596ce79928d9f29b74203ba284d460405160405180910390a2565b600061058660405180602001604052806000815250610795565b509050806105f55747600080549050600160149054906101000a900460ff1660018111156105b7576105b6610c1b565b5b6040517f584327aa0000000000000000000000000000000000000000000000000000000081526004016105ec939291906111c4565b60405180910390fd5b60018060146101000a81548160ff0219169083600181111561061a57610619610c1b565b5b021790555060007f000000000000000000000000000000000000000000000000000000000000000073ffffffffffffffffffffffffffffffffffffffff16635d3b1d307f00000000000000000000000000000000000000000000000000000000000000007f000000000000000000000000000000000000000000000000000000000000000060037f000000000000000000000000000000000000000000000000000000000000000060026040518663ffffffff1660e01b81526004016106e49594939291906112ae565b6020604051808303816000875af1158015610703573d6000803e3d6000fd5b505050506040513d601f19601f820116820180604052508101906107279190611316565b9050807fcd6e45c8998311cab7e9d4385596cac867e20a0587194b954fa3a731c93ce78b60405160405180910390a250505050565b6000600160009054906101000a900473ffffffffffffffffffffffffffffffffffffffff16905090565b6000600263ffffffff16905090565b600060606000600160149054906101000a900460ff1660018111156107bd576107bc610c1b565b5b600060018111156107d1576107d0610c1b565b5b14905060007f0000000000000000000000000000000000000000000000000000000000000000600254426108059190611372565b119050600080600080549050119050600080471190508280156108255750835b801561082e5750805b80156108375750815b9550856040518060400160405280600381526020017f30783000000000000000000000000000000000000000000000000000000000008152509550955050505050915091565b60007f0000000000000000000000000000000000000000000000000000000000000000905090565b6000600254905090565b6000600361ffff16905090565b60008082815481106108d1576108d06113a6565b5b9060005260206000200160009054906101000a900473ffffffffffffffffffffffffffffffffffffffff169050919050565b60008080549050905090565b600080805490508260008151811061092a576109296113a6565b5b602002602001015161093c9190611404565b90506000808281548110610953576109526113a6565b5b9060005260206000200160009054906101000a900473ffffffffffffffffffffffffffffffffffffffff16905080600160006101000a81548173ffffffffffffffffffffffffffffffffffffffff021916908373ffffffffffffffffffffffffffffffffffffffff1602179055506000600160146101000a81548160ff021916908360018111156109e7576109e6610c1b565b5b0217905550600067ffffffffffffffff811115610a0757610a06610d03565b5b604051908082528060200260200182016040528015610a355781602001602082028036833780820191505090505b5060009080519060200190610a4b929190610b40565b504260028190555060008173ffffffffffffffffffffffffffffffffffffffff1647604051610a7990611466565b60006040518083038185875af1925050503d8060008114610ab6576040519150601f19603f3d011682016040523d82523d6000602084013e610abb565b606091505b5050905080610af6576040517fa1d04b3900000000000000000000000000000000000000000000000000000000815260040160405180910390fd5b8173ffffffffffffffffffffffffffffffffffffffff167f5b690ec4a06fe979403046eaeea5b3ce38524683c3001f662c8b5a829632f7df60405160405180910390a25050505050565b828054828255906000526020600020908101928215610bb9579160200282015b82811115610bb85782518260006101000a81548173ffffffffffffffffffffffffffffffffffffffff021916908373ffffffffffffffffffffffffffffffffffffffff16021790555091602001919060010190610b60565b5b509050610bc69190610bca565b5090565b5b80821115610be3576000816000905550600101610bcb565b5090565b6000819050919050565b610bfa81610be7565b82525050565b6000602082019050610c156000830184610bf1565b92915050565b7f4e487b7100000000000000000000000000000000000000000000000000000000600052602160045260246000fd5b60028110610c5b57610c5a610c1b565b5b50565b6000819050610c6c82610c4a565b919050565b6000610c7c82610c5e565b9050919050565b610c8c81610c71565b82525050565b6000602082019050610ca76000830184610c83565b92915050565b6000604051905090565b600080fd5b600080fd5b610cca81610be7565b8114610cd557600080fd5b50565b600081359050610ce781610cc1565b92915050565b600080fd5b6000601f19601f8301169050919050565b7f4e487b7100000000000000000000000000000000000000000000000000000000600052604160045260246000fd5b610d3b82610cf2565b810181811067ffffffffffffffff82111715610d5a57610d59610d03565b5b80604052505050565b6000610d6d610cad565b9050610d798282610d32565b919050565b600067ffffffffffffffff821115610d9957610d98610d03565b5b602082029050602081019050919050565b600080fd5b6000610dc2610dbd84610d7e565b610d63565b90508083825260208201905060208402830185811115610de557610de4610daa565b5b835b81811015610e0e5780610dfa8882610cd8565b845260208401935050602081019050610de7565b5050509392505050565b600082601f830112610e2d57610e2c610ced565b5b8135610e3d848260208601610daf565b91505092915050565b60008060408385031215610e5d57610e5c610cb7565b5b6000610e6b85828601610cd8565b925050602083013567ffffffffffffffff811115610e8c57610e8b610cbc565b5b610e9885828601610e18565b9150509250929050565b600080fd5b60008083601f840112610ebd57610ebc610ced565b5b8235905067ffffffffffffffff811115610eda57610ed9610ea2565b5b602083019150836001820283011115610ef657610ef5610daa565b5b9250929050565b60008060208385031215610f1457610f13610cb7565b5b600083013567ffffffffffffffff811115610f3257610f31610cbc565b5b610f3e85828601610ea7565b92509250509250929050565b600073ffffffffffffffffffffffffffffffffffffffff82169050919050565b6000610f7582610f4a565b9050919050565b610f8581610f6a565b82525050565b6000602082019050610fa06000830184610f7c565b92915050565b600080fd5b600067ffffffffffffffff821115610fc657610fc5610d03565b5b610fcf82610cf2565b9050602081019050919050565b82818337600083830152505050565b6000610ffe610ff984610fab565b610d63565b90508281526020810184848401111561101a57611019610fa6565b5b611025848285610fdc565b509392505050565b600082601f83011261104257611041610ced565b5b8135611052848260208601610feb565b91505092915050565b60006020828403121561107157611070610cb7565b5b600082013567ffffffffffffffff81111561108f5761108e610cbc565b5b61109b8482850161102d565b91505092915050565b60008115159050919050565b6110b9816110a4565b82525050565b600081519050919050565b600082825260208201905092915050565b60005b838110156110f95780820151818401526020810190506110de565b60008484015250505050565b6000611110826110bf565b61111a81856110ca565b935061112a8185602086016110db565b61113381610cf2565b840191505092915050565b600060408201905061115360008301856110b0565b81810360208301526111658184611105565b90509392505050565b60006020828403121561118457611183610cb7565b5b600061119284828501610cd8565b91505092915050565b60006040820190506111b06000830185610f7c565b6111bd6020830184610f7c565b9392505050565b60006060820190506111d96000830186610bf1565b6111e66020830185610bf1565b6111f36040830184610bf1565b949350505050565b6000819050919050565b61120e816111fb565b82525050565b600067ffffffffffffffff82169050919050565b61123181611214565b82525050565b600061ffff82169050919050565b61124e81611237565b82525050565b600063ffffffff82169050919050565b6000819050919050565b600061128961128461127f84611237565b611264565b611254565b9050919050565b6112998161126e565b82525050565b6112a881611254565b82525050565b600060a0820190506112c36000830188611205565b6112d06020830187611228565b6112dd6040830186611245565b6112ea6060830185611290565b6112f7608083018461129f565b9695505050505050565b60008151905061131081610cc1565b92915050565b60006020828403121561132c5761132b610cb7565b5b600061133a84828501611301565b91505092915050565b7f4e487b7100000000000000000000000000000000000000000000000000000000600052601160045260246000fd5b600061137d82610be7565b915061138883610be7565b92508282039050818111156113a05761139f611343565b5b92915050565b7f4e487b7100000000000000000000000000000000000000000000000000000000600052603260045260246000fd5b7f4e487b7100000000000000000000000000000000000000000000000000000000600052601260045260246000fd5b600061140f82610be7565b915061141a83610be7565b92508261142a576114296113d5565b5b828206905092915050565b600081905092915050565b50565b6000611450600083611435565b915061145b82611440565b600082019050919050565b600061147182611443565b915081905091905056fea26469706673582212205a5c54f8a22cce95d72bd58e1407900a758979c0ada4d166cec079da150506c864736f6c63430008110033",
  "linkReferences": {},
  "deployedLinkReferences": {}
}